:100000000C942A000C943F000C943F000C943F0089
:100010000C943F000C943F000C943F000C943F0064
:100020000C943F000C943F000C943F000C943F0054
:100030000C943F000C943F000C943F000C943F0044
:100040000C943F000C943F000C943F000C943F0034
:100050000C943F0011241FBECFE5D8E0DEBFCDBF1A
:1000600010E0A0E6B0E0ECEEF1E002C005900D92E9
:10007000AC37B107D9F70E94B8000C94F4000C9487
:100080000000CF93DF93E0E6F0E02BE730E09FEF56
:100090008081811110C0C381D48118828181811136
:1000A00004C0A581B6819C930FC0813099F4A581CD
:1000B000B6811C9209C0813079F4C381D4819883C0
:1000C000C581D681828188833996E217F30701F7CB
:1000D00080E003C081E001C081E0DF91CF9108950D
:1000E00086B7846086BF089586B7806486BF08950A
:1000F00086B78F7D86BF089586B78F7E86BF0895A9
:1001000006B607FEFDCF089521B1287F30E090E0CC
:100110002817390759F42BB381E090E002C0880F0B
:10012000991F6A95E2F7822B8BBB089522B381E079
:1001300090E002C0880F991F6A95E2F7822B82BB7C
:10014000089582E382B90E9470000E9474000E94A8
:1001500078000E947C000E94800060E088EA0E9493
:100160008400089583B9089586B7806886BF08958E
:100170000E9441000E94A10087E00E94B2000E94FC
:10018000B4000E94800061E088EB0E94840086E059
:100190000E94B2000E94B4000E94800062E088EBDE
:1001A0000E94840081E00E94B2000E94B4000E947C
:1001B000800062E088EB0E94840082E00E94B2002E
:1001C0000E94B4000E94800062E088EB0E948400DC
:1001D00083E00E94B2000E94B4000E94800063E0AD
:0C01E00080EC0E948400FFCFF894FFCF59
:1001EC000101003A003B00390001010031003200EE
:0C01FC0030000101003700380036000020
:00000001FF
