:100000000C942A000C94E6020C9447000C944700D0
:100010000C9447000C9447000C9447000C94470044
:100020000C9447000C9447000C9447000C94470034
:100030000C9447000C9447000C9447000C94470024
:100040000C9447000C9447000C9447000C94470014
:100050000C94470011241FBECFE5D8E0DEBFCDBF12
:1000600011E0A0E6B0E0E6E6F7E002C005900D92F0
:10007000A031B107D9F721E0A0E1B1E001C01D92A4
:10008000A331B207E1F70E9417030C94B1030C945B
:100090000000CF93DF93E0E6F0E06AE071E041E03A
:1000A00050E0808181112FC0C481D58198819A014F
:1000B000018002C0220F331F0A94E2F7822F80953D
:1000C00089238883828181110DC0C681D7812881CF
:1000D000CA01018002C0880F991F0A94E2F7822B9F
:1000E00088832DC0813091F5C681D78198819A018E
:1000F000018002C0220F331F0A94E2F7822F8095FD
:10010000892388831CC0813019F5C481D581288159
:10011000CA01018002C0880F991F0A94E2F7822B5E
:100120008883C681D78128819381892F90E00180BF
:1001300002C0880F991F0A94E2F7822B88833A96AF
:10014000E617F70709F0ADCF80E003C081E001C0FA
:1001500081E0DF91CF910895883008F086C061304A
:1001600039F138F0623009F442C0633009F45EC0FE
:100170007EC0442371F04BB321E030E0B90102C0EE
:10018000660F771F8A95E2F7CB01842B8BBB80E04B
:1001900008954BB321E030E0B90102C0660F771F2C
:1001A0008A95E2F7CB01809584238BBB80E008958C
:1001B000442371F048B321E030E0B90102C0660F7A
:1001C000771F8A95E2F7CB01842B88BB80E00895E6
:1001D00048B321E030E0B90102C0660F771F8A956D
:1001E000E2F7CB018095842388BB80E00895442307
:1001F00071F045B321E030E0B90102C0660F771F0E
:100200008A95E2F7CB01842B85BB80E0089545B346
:1002100021E030E0B90102C0660F771F8A95E2F74E
:10022000CB018095842385BB80E00895442371F041
:1002300042B321E030E0B90102C0660F771F8A9512
:10024000E2F7CB01842B82BB80E0089542B321E02A
:1002500030E0B90102C0660F771F8A95E2F7CB0143
:100260008095842382BB80E0089581E0089581E039
:1002700008958130E1F030F0823071F1833009F47B
:1002800040C054C0613029F46BB3462B4BBB80E0B7
:100290000895611106C08BB3409548234BBB80E0A5
:1002A00008958BB34623482B4BBB80E00895613003
:1002B00029F468B3462B48BB80E00895611106C05D
:1002C00088B34095482348BB80E0089588B346230F
:1002D000482B48BB80E00895613029F465B3462B74
:1002E00045BB80E00895611106C085B34095482361
:1002F00045BB80E0089585B34623482B45BB80E08D
:100300000895613029F462B3462B42BB80E0089522
:10031000611106C082B34095482342BB80E0089536
:1003200082B34623482B42BB80E0089581E00895C4
:100330008FB780688FBF0895CF93DF9300D0CDB77C
:10034000DEB71A82198289819A81181619060CF46F
:100350007EC0E981FA81EE0FFF1FE65FFE4F8081CC
:10036000813069F120F0823009F451C074C0E98114
:10037000FA81EE0FFF1FE65FFE4F8181813089F029
:1003800028F0823039F0833081F067C085B78C7FE8
:1003900085BF11C085B78E7F85BF85B7826085BF59
:1003A0000AC085B7836085BF06C085B78D7F85BFCE
:1003B00085B7816085BF8BB780648BBF3DC0E98105
:1003C000FA81EE0FFF1FE65FFE4F8181813089F0D9
:1003D00028F0823039F0833081F041C085B7837FC7
:1003E00085BF11C085B7886085BF85B78B7F85BF06
:1003F0000AC085B78C6085BF06C085B7846085BF9D
:1004000085B7877F85BF8BB780688BBF15C0E981B3
:10041000FA81EE0FFF1FE65FFE4F8181813031F0E0
:100420008230F9F484B78F7B84BF03C084B78064C3
:1004300084BF8BB780628BBF89819A8101969A8332
:10044000898389819A81181619060CF082CF0E943F
:10045000980180E007C081E005C081E003C081E031
:1004600001C081E00F900F90DF91CF91089541E09E
:1004700060E080E00E94AC00982F813051F00000D5
:1004800040E060E080E00E94AC0091E0813009F043
:1004900090E0892F0895CF93C82F40EF60E080E06F
:1004A0000E943901813041F140EF6C2F607F80E084
:1004B0000E943901813001F10E9437028130E1F060
:1004C00040EF60E080E00E9439018130A9F080E1D6
:1004D000C89FB001112440EF80E00E9439018130B3
:1004E00059F00E943702813039F083EF91E0019793
:1004F000F1F700C0000080E0CF910895CF93C82F9E
:1005000040E060E081E00E94AC00982F813039F03B
:100510008C2F0E944B0291E0813009F090E0892FEE
:10052000CF91089585EA9EE00197F1F700C00000A1
:1005300080E30E947E02982F813021F180E20E94A8
:100540007E02982F8130F1F00E943702982F81307F
:10055000C9F088E20E947E02982F813099F08FE0E6
:100560000E947E02982F813069F081E00E947E0215
:10057000982F813039F086E00E947E0291E0813030
:1005800009F090E0892F08950F931F93CF93FC01FA
:10059000C081CC23B1F08C010F5F1F4F41E060E0C0
:1005A00081E00E94AC00813069F08C2F0E944B02E8
:1005B000813041F0F801C1918F01C111EFCF8C2F33
:1005C00001C08C2FCF911F910F9108951F920F9210
:1005D0000FB60F9211248F938DB5809312018CB5B5
:1005E0008093110181E0809310018F910F900FBED5
:1005F0000F901F901895CF93DF939C01FC01019001
:100600000020E9F7E81BE25079F090E0E901CE0F15
:10061000D11D8881D901A90FB11D4C9148838C93BC
:10062000E1509F5F9E1790F3DF91CF910895CF9394
:10063000DF93CDB7DEB76E970FB6F894DEBF0FBE6F
:10064000CDBF0E9449000E9492020E949C019E011F
:100650002F5F3F4F84E1D9011D928A95E9F7DE01B2
:1006600055968AE0FD0111928A95E9F78FB58E7F44
:100670008FBD8FB58D7F8FBD8EB5877F8EBD8EB5BB
:100680008F7E8EBD8EB581608EBD8EB584608EBD31
:10069000F901809110018823E1F3109210018091FB
:1006A00011012091120190E0922B81939193EA170E
:1006B000FB0779F74B895C8989899A89481B590B13
:1006C000A1F1E0E005E110E00C0F1D1F0E0F111D60
:1006D0009A01ADECBCEC0E94A20396958795969585
:1006E0008795969587959C01220F331F880F991F38
:1006F000880F991F880F991F820F931F9A01281B3B
:10070000390BC901805DD8018C939A01ADECBCEC2A
:100710000E94A203AC01569547955695479556956C
:100720004795EF5F4115510569F6CE0145960E9448
:10073000FB02CE0145960E94C4028CE091E00E942B
:10074000C402FFCFA29FB001B39FC001A39F700D51
:10075000811D1124911DB29F700D811D1124911DC9
:060760000895F894FFCF9C
:1007660001000000370038003600010100003700A4
:100776003800360001020000370038003600010359
:10078600000037003800360001040000370038004A
:10079600360001050000370038003600010600006B
:1007A60037003800360001070000370038003600F1
:1007B600010000003A003B003900010100003A0048
:1007C6003B003900010200003A003B0039000103FA
:1007D60000003A003B003900010400003A003B00EB
:1007E6003900010500003A003B003900010600000F
:1007F6003A003B003900010700003A003B0039008F
:10080600000600003100320030000002487A000085
:00000001FF
