S01200004932435F6D61737465722E7372656369
S11300000C942A000C943F000C943F000C943F0085
S11300100C943F000C943F000C943F000C943F0060
S11300200C943F000C943F000C943F000C943F0050
S11300300C943F000C943F000C943F000C943F0040
S11300400C943F000C943F000C943F000C943F0030
S11300500C943F0011241FBECFE5D8E0DEBFCDBF16
S113006010E0A0E6B0E0E6EBF1E002C005900D92EE
S1130070AC37B107D9F70E94B7000C94D9000C949F
S11300800000CF93DF93E0E6F0E02BE730E09FEF52
S11300908081811110C0C381D48118828181811132
S11300A004C0A581B6819C930FC0813099F4A581C9
S11300B0B6811C9209C0813079F4C381D4819883BC
S11300C0C581D681828188833996E217F30701F7C7
S11300D080E003C081E001C081E0DF91CF91089509
S11300E096B7946096BF96B7906296BF96B790689D
S11300F096BF06B607FEFDCF91B1987F983099F56B
S1130100880F83B986B78F7D86BF86B7806886BF20
S113011006B607FEFDCF81B1887F883131F5FB013A
S1130120808183B986B7806886BF06B607FEFDCF97
S1130130FB01319691E009C0819183B99F5F86B735
S1130140806886BF06B607FEFDCF81B1887F8832FE
S113015011F4941788F386B7806186BF86B78068E8
S113016086BF80E0089581E0089581E00895CF93EB
S1130170DF9300D000D0CDB7DEB70E94410081E00C
S1130180898382E08A8393E09B8394E09C832FE7B6
S11301903FE492E1215030409040E1F700C000007C
S11301A080B944E0BE016F5F7F4F8DE10E94700013
S10901B0FFCFF894FFCF1D
S11301B60101003A003B0039000101003100320020
S10F01C630000101003700380036000052
S9030000FC
