:100000000C942A000C9439020C945E020C948F021A
:100010000C9447000C9447000C9447000C94470044
:100020000C9447000C9447000C9447000C94470034
:100030000C9447000C9447000C9447000C94470024
:100040000C9447000C9447000C9447000C94470014
:100050000C94470011241FBECFE5D8E0DEBFCDBF12
:1000600010E0A0E6B0E0ECE5F7E002C005900D92EC
:10007000A43EB107D9F720E0A4EEB0E001C01D9284
:10008000A43EB207E1F70E947C030C94AC030C94ED
:100090000000CF93DF93E0E6F0E064EC70E041E035
:1000A00050E0808181112FC0C481D58198819A014F
:1000B000018002C0220F331F0A94E2F7822F80953D
:1000C00089238883828181110DC0C681D7812881CF
:1000D000CA01018002C0880F991F0A94E2F7822B9F
:1000E00088832DC0813091F5C681D78198819A018E
:1000F000018002C0220F331F0A94E2F7822F8095FD
:10010000892388831CC0813019F5C481D581288159
:10011000CA01018002C0880F991F0A94E2F7822B5E
:100120008883C681D78128819381892F90E00180BF
:1001300002C0880F991F0A94E2F7822B88833A96AF
:10014000E617F70709F0ADCF80E003C081E001C0FA
:1001500081E0DF91CF910895883008F086C061304A
:1001600039F138F0623009F442C0633009F45EC0FE
:100170007EC0442371F04BB321E030E0B90102C0EE
:10018000660F771F8A95E2F7CB01842B8BBB80E04B
:1001900008954BB321E030E0B90102C0660F771F2C
:1001A0008A95E2F7CB01809584238BBB80E008958C
:1001B000442371F048B321E030E0B90102C0660F7A
:1001C000771F8A95E2F7CB01842B88BB80E00895E6
:1001D00048B321E030E0B90102C0660F771F8A956D
:1001E000E2F7CB018095842388BB80E00895442307
:1001F00071F045B321E030E0B90102C0660F771F0E
:100200008A95E2F7CB01842B85BB80E0089545B346
:1002100021E030E0B90102C0660F771F8A95E2F74E
:10022000CB018095842385BB80E00895442371F041
:1002300042B321E030E0B90102C0660F771F8A9512
:10024000E2F7CB01842B82BB80E0089542B321E02A
:1002500030E0B90102C0660F771F8A95E2F7CB0143
:100260008095842382BB80E0089581E0089581E039
:1002700008958130E1F030F0823071F1833009F47B
:1002800040C054C0613029F46BB3462B4BBB80E0B7
:100290000895611106C08BB3409548234BBB80E0A5
:1002A00008958BB34623482B4BBB80E00895613003
:1002B00029F468B3462B48BB80E00895611106C05D
:1002C00088B34095482348BB80E0089588B346230F
:1002D000482B48BB80E00895613029F465B3462B74
:1002E00045BB80E00895611106C085B34095482361
:1002F00045BB80E0089585B34623482B45BB80E08D
:100300000895613029F462B3462B42BB80E0089522
:10031000611106C082B34095482342BB80E0089536
:1003200082B34623482B42BB80E0089581E00895C4
:100330008FB780688FBF0895CF93DF9300D0CDB77C
:10034000DEB71A82198289819A81181619060CF46F
:100350007EC0E981FA81EE0FFF1FEC53FF4F8081D1
:10036000813069F120F0823009F451C074C0E98114
:10037000FA81EE0FFF1FEC53FF4F8181813089F02E
:1003800028F0823039F0833081F067C085B78C7FE8
:1003900085BF11C085B78E7F85BF85B7826085BF59
:1003A0000AC085B7836085BF06C085B78D7F85BFCE
:1003B00085B7816085BF8BB780648BBF3DC0E98105
:1003C000FA81EE0FFF1FEC53FF4F8181813089F0DE
:1003D00028F0823039F0833081F041C085B7837FC7
:1003E00085BF11C085B7886085BF85B78B7F85BF06
:1003F0000AC085B78C6085BF06C085B7846085BF9D
:1004000085B7877F85BF8BB780688BBF15C0E981B3
:10041000FA81EE0FFF1FEC53FF4F8181813031F0E5
:100420008230F9F484B78F7B84BF03C084B78064C3
:1004300084BF8BB780628BBF89819A8101969A8332
:10044000898389819A81181619060CF082CF0E943F
:10045000980180E007C081E005C081E003C081E031
:1004600001C081E00F900F90DF91CF91089580E05F
:1004700008951F920F920FB60F9211242F933F935E
:100480004F935F936F937F938F939F93AF93BF939C
:10049000EF93FF93E0E0F0E00995FF91EF91BF91BA
:1004A000AF919F918F917F916F915F914F913F910C
:1004B0002F910F900FBE0F901F9018951F920F92C3
:1004C0000FB60F9211242F933F934F935F936F9327
:1004D0007F938F939F93AF93BF93EF93FF9386EC9C
:1004E00090E00E9441038BE79CE2A1E0B0E00000B5
:1004F0000197A109B109D9F70E946303FF91EF9118
:10050000BF91AF919F918F917F916F915F914F912B
:100510003F912F910F900FBE0F901F9018951F9233
:100520000F920FB60F9211242F933F934F935F9327
:100530006F937F938F939F93AF93BF93EF93FF93AB
:10054000E0E0F0E00995FF91EF91BF91AF919F91AD
:100550008F917F916F915F914F913F912F910F906C
:100560000FBE0F901F90189541E060E080E00E9460
:10057000AC00982F813051F0000040E060E080E056
:100580000E94AC0091E0813009F090E0892F08953D
:10059000CF93C82F40EF60E081E00E9439018130A5
:1005A00041F140EF6C2F607F81E00E943901813082
:1005B00001F10E94B4028130E1F040EF60E081E09F
:1005C0000E9439018130A9F080E1C89FB001112457
:1005D00040EF81E00E943901813059F00E94B4025D
:1005E000813039F083EF91E00197F1F700C000000E
:1005F00080E0CF910895CF93C82F40E060E081E084
:100600000E94AC00982F813039F08C2F0E94C802D4
:1006100091E0813009F090E0892FCF91089585EA2B
:100620009EE00197F1F700C0000080E30E94FB020A
:10063000982F813021F180E20E94FB02982F8130B7
:10064000F1F00E94B402982F8130C9F088E20E9434
:10065000FB02982F813099F08FE00E94FB02982FC7
:10066000813069F081E00E94FB02982F813039F0DF
:1006700086E00E94FB0291E0813009F090E0892F32
:1006800008950F931F93CF93FC01C081CC23B1F049
:100690008C010F5F1F4F41E060E081E00E94AC00E1
:1006A000813069F08C2F0E94C802813041F0F8013E
:1006B000C1918F01C111EFCF8C2F01C08C2FCF9131
:1006C0001F910F91089581E00E94FB0291E081301B
:1006D00009F090E0892F089586EC90E00E94410394
:1006E0008BE79CE2A1E0B0E000000197A109B1090D
:1006F000D9F70E94630308950E944900813049F1AF
:100700000E940F03813029F10E949C018CE693E046
:100710000E9437028130E9F08EEC90E00E944103A4
:100720008BE79CE2A1E0B0E000000197A109B109CC
:10073000D9F786ED90E00E9441038BE79CE2A1E0AF
:10074000B0E000000197A109B109D9F70E94630345
:0C075000F0CF81E090E00895F894FFCF16
:10075C0000020000370038003600010400003700AA
:10076C00380036000105000037003800360001065D
:10077C000000370038003600010700003700380051
:10078C003600010000003A003B0039000101000076
:10079C003A003B003900000200003100320030000A
:1007AC00000300003100320030000103000034006F
:1007BC003500330001016D6F68616D6564006D6D0E
:1007CC006D6D6D6D6D006262626262626262626228
:0407DC006262000055
:00000001FF
