:100000000C942A000C9447000C9447000C94470071
:100010000C9447000C9447000C9447000C94AC00DF
:100020000C9447000C9447000C9447000C94470034
:100030000C9447000C9447000C9447000C94470024
:100040000C9447000C9447000C9447000C94470014
:100050000C94470011241FBECFE5D8E0DEBFCDBF12
:1000600010E0A0E6B0E0E8EBF1E002C005900D92F0
:10007000A838B107D9F720E0A8E8B0E001C01D9288
:10008000A838B207E1F70E94BE000C94DA000C9485
:100090000000CF93DF93E0E6F0E068E870E041E035
:1000A00050E0808181112FC0C481D58198819A014F
:1000B000018002C0220F331F0A94E2F7822F80953D
:1000C00089238883828181110DC0C681D7812881CF
:1000D000CA01018002C0880F991F0A94E2F7822B9F
:1000E00088832DC0813091F5C681D78198819A018E
:1000F000018002C0220F331F0A94E2F7822F8095FD
:10010000892388831CC0813019F5C481D581288159
:10011000CA01018002C0880F991F0A94E2F7822B5E
:100120008883C681D78128819381892F90E00180BF
:1001300002C0880F991F0A94E2F7822B88833A96AF
:10014000E617F70709F0ADCF80E003C081E001C0FA
:1001500081E0DF91CF9108951F920F920FB60F9219
:1001600011248F939F9392B381E0892782BB9F9143
:100170008F910F900FBE0F901F9018950E9449000D
:100180008FB58E7F8FBD8FB58D7F8FBD8EB588600B
:100190008EBD8EB58F7E8EBD83E08BBD88EE8ABD11
:1001A00089B7806189BF8FB780688FBF8EB5816046
:0801B0008EBDFFCFF894FFCFD4
:1001B800010000003100320030000101000131006F
:1001C800320030000102000131003200300001032A
:0801D80000013100320030008B
:00000001FF
