:100000000C942A000C9447000C9447000C94470071
:100010000C9447000C9447000C9447000C94470044
:100020000C9447000C9447000C9447000C94470034
:100030000C9447000C9447000C9447000C94470024
:100040000C9447000C9447000C9447000C94470014
:100050000C94470011241FBECFE5D8E0DEBFCDBF12
:1000600011E0A0E6B0E0E6EAF9E002C005900D92EA
:10007000A232B107D9F721E0A2E2B1E001C01D929E
:10008000A232B207E1F70E9463020C94D1040C94EF
:100090000000CF93DF93E0E6F0E064E171E041E03F
:1000A00050E0808181112FC0C481D58198819A014F
:1000B000018002C0220F331F0A94E2F7822F80953D
:1000C00089238883828181110DC0C681D7812881CF
:1000D000CA01018002C0880F991F0A94E2F7822B9F
:1000E00088832DC0813091F5C681D78198819A018E
:1000F000018002C0220F331F0A94E2F7822F8095FD
:10010000892388831CC0813019F5C481D581288159
:10011000CA01018002C0880F991F0A94E2F7822B5E
:100120008883C681D78128819381892F90E00180BF
:1001300002C0880F991F0A94E2F7822B88833A96AF
:10014000E617F70709F0ADCF80E003C081E001C0FA
:1001500081E0DF91CF910895883008F086C061304A
:1001600039F138F0623009F442C0633009F45EC0FE
:100170007EC0442371F04BB321E030E0B90102C0EE
:10018000660F771F8A95E2F7CB01842B8BBB80E04B
:1001900008954BB321E030E0B90102C0660F771F2C
:1001A0008A95E2F7CB01809584238BBB80E008958C
:1001B000442371F048B321E030E0B90102C0660F7A
:1001C000771F8A95E2F7CB01842B88BB80E00895E6
:1001D00048B321E030E0B90102C0660F771F8A956D
:1001E000E2F7CB018095842388BB80E00895442307
:1001F00071F045B321E030E0B90102C0660F771F0E
:100200008A95E2F7CB01842B85BB80E0089545B346
:1002100021E030E0B90102C0660F771F8A95E2F74E
:10022000CB018095842385BB80E00895442371F041
:1002300042B321E030E0B90102C0660F771F8A9512
:10024000E2F7CB01842B82BB80E0089542B321E02A
:1002500030E0B90102C0660F771F8A95E2F7CB0143
:100260008095842382BB80E0089581E0089581E039
:1002700008958130E1F030F0823071F1833009F47B
:1002800040C054C0613029F46BB3462B4BBB80E0B7
:100290000895611106C08BB3409548234BBB80E0A5
:1002A00008958BB34623482B4BBB80E00895613003
:1002B00029F468B3462B48BB80E00895611106C05D
:1002C00088B34095482348BB80E0089588B346230F
:1002D000482B48BB80E00895613029F465B3462B74
:1002E00045BB80E00895611106C085B34095482361
:1002F00045BB80E0089585B34623482B45BB80E08D
:100300000895613029F462B3462B42BB80E0089522
:10031000611106C082B34095482342BB80E0089536
:1003200082B34623482B42BB80E0089581E00895C4
:1003300041E060E080E00E94AC00982F813051F0F5
:10034000000040E060E080E00E94AC0091E081307D
:1003500009F090E0892F0895CF93C82F40EF60E017
:1003600080E00E943901813041F140EF6C2F607FC5
:1003700080E00E943901813001F10E9498018130B2
:10038000E1F040EF60E080E00E9439018130A9F0A7
:1003900080E1C89FB001112440EF80E00E94390144
:1003A000813059F00E949801813039F083EF91E05B
:1003B0000197F1F700C0000080E0CF910895CF933E
:1003C000C82F40E060E081E00E94AC00982F8130AF
:1003D00039F08C2F0E94AC0191E0813009F090E05F
:1003E000892FCF91089585EA9EE00197F1F700C02B
:1003F000000080E30E94DF01982F813021F180E22C
:100400000E94DF01982F8130F1F00E949801982F0F
:100410008130C9F088E20E94DF01982F813099F085
:100420008FE00E94DF01982F813069F081E00E9407
:10043000DF01982F813039F086E00E94DF0191E0E2
:10044000813009F090E0892F08950F931F93CF9387
:10045000FC01C081CC23B1F08C010F5F1F4F41E044
:1004600060E081E00E94AC00813069F08C2F0E9436
:10047000AC01813041F0F801C1918F01C111EFCF82
:100480008C2F01C08C2FCF911F910F910895CF9386
:10049000DF939C01FC0101900020E9F7E81BE2508A
:1004A00079F090E0E901CE0FD11D8881D901A90F23
:1004B000B11D4C9148838C93E1509F5F9E1790F340
:1004C000DF91CF910895CF93DF93CDB7DEB76E97CD
:1004D0000FB6F894DEBF0FBECDBF0E9449000E9448
:1004E000F301FE01319684E1DF011D928A95E9F75F
:1004F0009E012B5E3F4F8AE0D9011D928A95E9F754
:100500008FB58E7F8FBD8FB58D7F8FBD8EB5877F69
:100510008EBD8EB58F7E8EBD8EB58F7B8EBD8EB51A
:1005200081608EBDDF0140E408B605FEFDCF88B7CF
:10053000806288BF8EB584278EBD86B590E091839A
:10054000808357B5952B819391932E173F0761F7C1
:100550006B897C8989899A89681B790B08B605FEA5
:10056000FDCF88B7806288BF86B590E011969C93D6
:100570008E9347B5942B8D939D932A173B0771F764
:1005800080E090E00E94B4036B017C016B897C8960
:1005900089899A89681B790B80E090E00E94B403F6
:1005A0009B01AC01C701B6010E94130320E030E0BB
:1005B00048EC52E40E9442040E94850361157105D3
:1005C0008105910519F110E00F2EFAE0CF2ED12C04
:1005D000E12CF12CF02D0F2EF5E1AF2EB12CF02DEA
:1005E000AC0EBD1EA10EB11CA70196010E94AF0466
:1005F00080E3860FF5018083622F732F842F952F60
:100600001F5F611571058105910529F7CE0145969A
:100610000E944702CE0145960E94250284E191E0A6
:100620000E942502FFCF0E9427030C9408040E9419
:10063000010458F00E94FA0340F029F45F3F29F0CA
:100640000C94F10351110C943C040C94F7030E9498
:10065000190468F39923B1F3552391F3951B550BB6
:10066000BB27AA2762177307840738F09F5F5F4F85
:10067000220F331F441FAA1FA9F335D00E2E3AF0C4
:10068000E0E832D091505040E695001CCAF72BD0DC
:10069000FE2F29D0660F771F881FBB1F261737072D
:1006A0004807AB07B0E809F0BB0B802DBF01FF275F
:1006B00093585F4F3AF09E3F510578F00C94F10348
:1006C0000C943C045F3FE4F3983ED4F38695779511
:1006D0006795B795F7959F5FC9F7880F911D969518
:1006E000879597F90895E1E0660F771F881FBB1F74
:1006F000621773078407BA0720F0621B730B840B21
:10070000BA0BEE1F88F7E09508950E94210488F047
:100710009F5798F0B92F9927B751B0F0E1F0660FC5
:10072000771F881F991F1AF0BA95C9F714C0B13006
:1007300091F00E943B04B1E008950C943B04672FB4
:10074000782F8827B85F39F0B93FCCF38695779535
:100750006795B395D9F73EF490958095709561951E
:100760007F4F8F4F9F4F0895E89409C097FB3EF449
:1007700090958095709561957F4F8F4F9F4F9923EE
:10078000A9F0F92F96E9BB279395F695879577956C
:100790006795B795F111F8CFFAF4BB0F11F460FF2C
:1007A0001BC06F5F7F4F8F4F9F4F16C0882311F084
:1007B00096E911C0772321F09EE8872F762F05C098
:1007C000662371F096E8862F70E060E02AF09A9533
:1007D000660F771F881FDAF7880F9695879597F928
:1007E000089597F99F6780E870E060E008959FEFB3
:1007F00080EC089500240A941616170618060906B8
:10080000089500240A941216130614060506089586
:10081000092E0394000C11F4882352F0BB0F40F40E
:10082000BF2B11F460FF04C06F5F7F4F8F4F9F4F4E
:10083000089557FD9058440F551F59F05F3F71F0D0
:100840004795880F97FB991F61F09F3F79F0879537
:100850000895121613061406551FF2CF4695F1DFC0
:1008600008C0161617061806991FF1CF8695710550
:10087000610508940895E894BB2766277727CB0184
:1008800097F908950E9455040C9408040E94FA03F5
:1008900038F00E94010420F0952311F00C94F1032C
:1008A0000C94F70311240C943C040E94190470F377
:1008B000959FC1F3950F50E0551F629FF001729F05
:1008C000BB27F00DB11D639FAA27F00DB11DAA1F14
:1008D000649F6627B00DA11D661F829F2227B00D61
:1008E000A11D621F739FB00DA11D621F839FA00DEC
:1008F000611D221F749F3327A00D611D231F849F3C
:10090000600D211D822F762F6A2F11249F57504092
:100910009AF0F1F088234AF0EE0FFF1FBB1F661F0D
:10092000771F881F91505040A9F79E3F510580F0D6
:100930000C94F1030C943C045F3FE4F3983ED4F331
:10094000869577956795B795F795E7959F5FC1F77A
:10095000FE2B880F911D9695879597F90895A1E232
:100960001A2EAA1BBB1BFD010DC0AA1FBB1FEE1F29
:10097000FF1FA217B307E407F50720F0A21BB30B74
:10098000E40BF50B661F771F881F991F1A9469F7F0
:1009900060957095809590959B01AC01BD01CF014C
:0609A0000895F894FFCF5A
:1009A6000100000037003800360001010000370062
:1009B6003800360001020000370038003600010317
:1009C6000000370038003600010400003700380008
:1009D6003600010500003700380036000106000029
:1009E60037003800360001070000370038003600AF
:1009F600010000003A003B003900010100003A0006
:100A06003B003900010200003A003B0039000103B7
:100A160000003A003B003900010400003A003B00A8
:100A26003900010500003A003B00390001060000CC
:100A36003A003B003900010700003A003B0039004C
:100A460000060100310032003000000200003100D3
:100A560032003000252064757479204379636C6513
:020A660000008E
:00000001FF
