S01000004932435F746573742E7372656337
S11300000C942A000C943F000C943F000C943F0085
S11300100C943F000C943F000C943F000C943F0060
S11300200C943F000C943F000C943F000C943F0050
S11300300C943F000C943F000C943F000C943F0040
S11300400C943F000C943F000C943F000C943F0030
S11300500C943F0011241FBECFE5D8E0DEBFCDBF16
S113006010E0A0E6B0E0EAEEF1E002C005900D92E7
S1130070A836B107D9F70E94CE000C94F3000C9473
S1130080000091E001C0990F8A95EAF78BB38927A4
S11300908BBB2FE936E881E0215030408040E1F706
S11300A000C00000F3CF21B1287F30E090E0281792
S11300B0390719F0862F0E944100089586B7806899
S11300C086BF86B7846086BF089586B7806286BF80
S11300D0089506B607FEFDCF089586B7806186BFF2
S11300E00895CF93DF93C82FD62F13B816BE0E945E
S11300F065000E945E000E94690060E088E00E9442
S11301005300D3B986B78F7D86BF0E945E000E94DC
S1130110690061E088E10E945300C3B90E945E0057
S11301200E94690062E088E20E9453000E946D0010
S1130130DF91CF9108951F93CF93DF93EC01162F96
S113014013B816BE0E9465000E945E000E946900FA
S113015060E088E00E94530013B986B78F7D86BFA4
S11301600E945E000E94690061E088E10E945300E1
S11301709881992369F0219693B90E945E000E94A8
S1130180690062E088E20E94530099919111F4CFD2
S11301900E946D00DF91CF911F9108958FEF8ABB6C
S11301A085E49EE10197F1F700C0000082E080B988
S11301B064E68DE60E94710083EC99E00197F1F703
S11301C000C0000068EC86E690E00E949B008BE58E
S11301D094E40197F1F700C0000068EC80E690E039
S10D01E00E949B00FFCFF894FFCFAC
S10B01EA6D6F68616D6564002E
S9030000FC
