:100000000C942A000C9447000C9447000C94470071
:100010000C9447000C9447000C9447000C94470044
:100020000C9447000C9447000C9447000C94470034
:100030000C9447000C9447000C9447000C94470024
:100040000C9447000C9447000C9447000C94470014
:100050000C94470011241FBECFE5D8E0DEBFCDBF12
:1000600011E0A0E6B0E0E4E3F9E002C005900D92F3
:10007000A633B107D9F721E0A6E3B1E001C01D9294
:10008000A633B207E1F70E9440040C9498040C9444
:100090000000CF93DF93FC01BC016C547F4F41E023
:1000A00050E0808181112FC0C481D58198819A014F
:1000B000018002C0220F331F0A94E2F7822F80953D
:1000C00089238883828181110DC0C681D7812881CF
:1000D000CA01018002C0880F991F0A94E2F7822B9F
:1000E00088832DC0813091F5C681D78198819A018E
:1000F000018002C0220F331F0A94E2F7822F8095FD
:10010000892388831CC0813019F5C481D581288159
:10011000CA01018002C0880F991F0A94E2F7822B5E
:100120008883C681D78128819381892F90E00180BF
:1001300002C0880F991F0A94E2F7822B88833A96AF
:10014000E617F70709F0ADCF80E003C081E001C0FA
:1001500081E0DF91CF910895883008F086C061304A
:1001600039F138F0623009F442C0633009F45EC0FE
:100170007EC0442371F04BB321E030E0B90102C0EE
:10018000660F771F8A95E2F7CB01842B8BBB80E04B
:1001900008954BB321E030E0B90102C0660F771F2C
:1001A0008A95E2F7CB01809584238BBB80E008958C
:1001B000442371F048B321E030E0B90102C0660F7A
:1001C000771F8A95E2F7CB01842B88BB80E00895E6
:1001D00048B321E030E0B90102C0660F771F8A956D
:1001E000E2F7CB018095842388BB80E00895442307
:1001F00071F045B321E030E0B90102C0660F771F0E
:100200008A95E2F7CB01842B85BB80E0089545B346
:1002100021E030E0B90102C0660F771F8A95E2F74E
:10022000CB018095842385BB80E00895442371F041
:1002300042B321E030E0B90102C0660F771F8A9512
:10024000E2F7CB01842B82BB80E0089542B321E02A
:1002500030E0B90102C0660F771F8A95E2F7CB0143
:100260008095842382BB80E0089581E0089581E039
:100270000895813059F028F0823069F0833081F0A0
:1002800014C089B3FB01808380E0089586B3FB012D
:10029000808380E0089583B3FB01808380E008952C
:1002A00080B3FB01808380E0089581E00895813070
:1002B00049F028F0823049F0833051F00CC06BBB1C
:1002C00080E0089568BB80E0089565BB80E00895F4
:1002D00062BB80E0089581E008958130E1F030F064
:1002E000823071F1833009F440C054C0613029F488
:1002F0006BB3462B4BBB80E00895611106C08BB3F6
:10030000409548234BBB80E008958BB34623482B90
:100310004BBB80E00895613029F468B3462B48BB9D
:1003200080E00895611106C088B34095482348BB1A
:1003300080E0089588B34623482B48BB80E00895A9
:10034000613029F465B3462B45BB80E00895611107
:1003500006C085B34095482345BB80E0089585B32A
:100360004623482B45BB80E00895613029F462B3F1
:10037000462B42BB80E00895611106C082B34095D0
:10038000482342BB80E0089582B34623482B42BBFA
:1003900080E0089581E00895FF920F931F93CF931B
:1003A000DF931F92CDB7DEB7182F6FEF0E94570172
:1003B000813009F47AC140E0612F80E00E94AC00F6
:1003C000813009F474C1BE016F5F7F4F812F0E949D
:1003D0003901813009F46DC18981807F803B31F121
:1003E00018F4803791F140C0803D89F0803EE1F5FE
:1003F000BE016F5F7F4F812F0E943901813009F468
:100400005AC18981807F803E99F307E379C1BE019B
:100410006F5F7F4F812F0E943901813009F44DC1F8
:100420008981807F803D99F308E36AC1BE016F5FD7
:100430007F4F812F0E943901813009F440C18981A9
:10044000807F803B99F309E35BC1BE016F5F7F4F03
:10045000812F0E943901813009F433C18981807F65
:10046000803799F30FE24CC141E0612F80E00E9498
:10047000AC00813009F427C140E0612F81E00E9487
:10048000AC00813009F421C1BE016F5F7F4F812F25
:100490000E943901082F81111AC18981807F803B18
:1004A00031F118F4803791F140C0803D89F0803EF1
:1004B000E1F5BE016F5F7F4F812F0E9439018130CE
:1004C00009F41EC18981807F803E99F304E318C13D
:1004D000BE016F5F7F4F812F0E943901813009F487
:1004E0000FC18981807F803D99F305E309C1BE0179
:1004F0006F5F7F4F812F0E943901813009F400C165
:100500008981807F803B99F306E3FAC0BE016F5F6B
:100510007F4F812F0E943901813009F4F1C0898118
:10052000807F803799F308E7EBC041E0612F81E0DD
:100530000E94AC00813009F4E3C040E0612F82E00A
:100540000E94AC00813009F4DBC0BE016F5F7F4FB9
:10055000812F0E943901F82E8111D2C08981807FBC
:10056000803B31F118F4803791F140C0803D89F033
:10057000803EE1F5BE016F5F7F4F812F0E94390100
:10058000813009F4A6C08981807F803E99F301E320
:10059000B7C0BE016F5F7F4F812F0E94390181304C
:1005A00009F499C08981807F803D99F302E3A8C056
:1005B000BE016F5F7F4F812F0E943901813009F4A6
:1005C0008CC08981807F803B99F303E399C0BE0191
:1005D0006F5F7F4F812F0E943901813009F47FC006
:1005E0008981807F803799F30DE28AC041E0612FD5
:1005F00082E00E94AC00813009F473C040E0612FBA
:1006000083E00E94AC00813009F46DC0BE016F5FD1
:100610007F4F812F0E943901813009F466C08981A2
:10062000807F803B31F118F4803789F160C0803DD4
:1006300091F0803E09F05BC0BE016F5F7F4F812F5C
:100640000E943901813009F454C08981807F803E45
:1006500099F303E455C0BE016F5F7F4F812F0E9465
:100660003901811148C08981807F803DA1F300E379
:1006700047C0BE016F5F7F4F812F0E9439018111FA
:100680003CC08981807F803BA1F30DE339C0BE016E
:100690006F5F7F4F812F0E943901813081F1898105
:1006A000807F8037A1F30BE22BC000E029C000E07F
:1006B00027C000E025C000E023C000E021C000E02A
:1006C0001FC000E01DC000E01BC000E019C000E03A
:1006D00017C00F2D15C00F2D13C00F2D11C00F2DDA
:1006E0000FC00F2D0DC00F2D0BC00F2D09C00F2DEA
:1006F00007C00F2D05C00F2D03C00F2D01C00F2DFA
:10070000802F0F90DF91CF911F910F91FF9008954F
:1007100041E060E080E00E94AC00982F813051F011
:10072000000040E060E080E00E94AC0091E0813099
:1007300009F090E0892F0895CF93C82F40EF60E033
:1007400081E00E946D01813041F140EF6C2F607FAC
:1007500081E00E946D01813001F10E9488038130A7
:10076000E1F040EF60E081E00E946D018130A9F08E
:1007700080E1C89FB001112440EF81E00E946D012B
:10078000813059F00E948803813039F083EF91E085
:100790000197F1F700C0000080E0CF910895CF935A
:1007A000C82F40E060E081E00E94AC00982F8130CB
:1007B00039F08C2F0E949C0391E0813009F090E089
:1007C000892FCF91089585EA9EE00197F1F700C047
:1007D000000080E30E94CF03982F813021F180E256
:1007E0000E94CF03982F8130F1F00E948803982F48
:1007F0008130C9F088E20E94CF03982F813099F0B0
:100800008FE00E94CF03982F813069F081E00E9431
:10081000CF03982F813039F086E00E94CF0391E01A
:10082000813009F090E0892F08950F931F93CF93A3
:10083000FC01C081CC23B1F08C010F5F1F4F41E060
:1008400060E081E00E94AC00813069F08C2F0E9452
:100850009C03813041F0F801C1918F01C111EFCFAC
:100860008C2F01C08C2FCF911F910F91089581E0A3
:100870000E94CF0391E0813009F090E0892F089524
:10088000CF93DF93CDB7DEB76B970FB6F894DEBF8B
:100890000FBECDBFFE01319689E1DF011D928A9521
:1008A000E9F71B8E1A8E80E690E00E9449000E94B4
:1008B000E30310E004C083E00E94CC018A8F8A8D9C
:1008C0008823C9F38D33B9F0833431F4115080E1BA
:1008D0000E94CF031A8EF3CFCE014A960E941504D0
:1008E000E1E0F0E0EC0FFD1FE10FF11D8A8D808348
:1008F0001F5F1A8EE4CF0E94370464E171E0CE01DD
:1009000001960E948F04892B29F48BE191E00E94CB
:10091000150404C087E291E00E941504FFCFFB019B
:10092000DC018D91019080190110D9F3990B089584
:04093000F894FFCF69
:1009340001000000370038003600010100003700D4
:100944003800360001020000370038003600010389
:10095400000037003800360001040000370038007A
:10096400360001050000370038003600010600009B
:100974003700380036000107000037003800360021
:10098400010000003A003B003900010100003A0078
:100994003B00390000040001310032003000000542
:1009A4000001310032003000000600013100320045
:1009B4003000000700013100320030000100000166
:1009C40031003200300001010001310032003000FA
:1009D4000102000131003200300001030001310046
:1009E400320030003132333435360057656C6C6375
:1009F4006F6D65203A290057726F6E6720506173DE
:060A040073776F726400BD
:00000001FF
