S01000004932435F746573742E7372656337
S11300000C942A000C9447000C9447000C9447006D
S11300100C9447000C9447000C9447000C94470040
S11300200C9447000C9447000C9447000C94470030
S11300300C9447000C9447000C9447000C94470020
S11300400C9447000C9447000C9447000C94470010
S11300500C94470011241FBECFE5D8E0DEBFCDBF0E
S113006010E0A0E6B0E0E4E0F5E002C005900D92F7
S1130070AC37B107D9F720E0ACE7B0E001C01D927E
S1130080AC37B207E1F70E946A020C9480020C9428
S11300900000CF93DF93E0E6F0E02BE730E09FEF42
S11300A08081811110C0C381D48118828181811122
S11300B004C0A581B6819C930FC0813099F4A581B9
S11300C0B6811C9209C0813079F4C381D4819883AC
S11300D0C581D681828188833996E217F30701F7B7
S11300E080E003C081E001C081E0DF91CF910895F9
S11300F0883008F086C0613039F138F0623009F494
S113010042C0633009F45EC07EC0442371F04BB337
S113011021E030E0B90102C0660F771F8A95E2F74B
S1130120CB01842B8BBB80E008954BB321E030E0FE
S1130130B90102C0660F771F8A95E2F7CB0180955B
S113014084238BBB80E00895442371F048B321E0FD
S113015030E0B90102C0660F771F8A95E2F7CB0140
S1130160842B88BB80E0089548B321E030E0B901D6
S113017002C0660F771F8A95E2F7CB01809584232E
S113018088BB80E00895442371F045B321E030E05A
S1130190B90102C0660F771F8A95E2F7CB01842B61
S11301A085BB80E0089545B321E030E0B90102C089
S11301B0660F771F8A95E2F7CB018095842385BB70
S11301C080E00895442371F042B321E030E0B901A6
S11301D002C0660F771F8A95E2F7CB01842B82BB9E
S11301E080E0089542B321E030E0B90102C0660F17
S11301F0771F8A95E2F7CB018095842382BB80E048
S1130200089581E0089581E008958130E1F030F0AF
S1130210823071F1833009F440C054C0613029F454
S11302206BB3462B4BBB80E00895611106C08BB3C2
S1130230409548234BBB80E008958BB34623482B5D
S11302404BBB80E00895613029F468B3462B48BB6A
S113025080E00895611106C088B34095482348BBE7
S113026080E0089588B34623482B48BB80E0089576
S1130270613029F465B3462B45BB80E008956111D4
S113028006C085B34095482345BB80E0089585B3F7
S11302904623482B45BB80E00895613029F462B3BE
S11302A0462B42BB80E00895611106C082B340959D
S11302B0482342BB80E0089582B34623482B42BBC7
S11302C080E0089581E0089541E061E080E00E94CB
S11302D07800982F813051F0000040E061E080E028
S11302E00E94780091E0813009F090E0892F089510
S11302F0CF93C82F40EF60E081E00E940501813078
S113030041F140EF6C2F607F81E00E940501813054
S113031001F10E9464018130E1F040EF60E081E08E
S11303200E9405018130A9F080E1C89FB001112429
S113033040EF81E00E940501813059F00E94640180
S1130340813039F083EF91E00197F1F700C00000AC
S113035080E0CF910895CF93C82F40E061E081E021
S11303600E947800982F813039F08C2F0E947801F8
S113037091E0813009F090E0892FCF91089585EACA
S11303809EE00197F1F700C0000080E30E94AB01FA
S1130390982F813021F180E20E94AB01982F8130A7
S11303A0F1F00E946401982F8130C9F088E20E9424
S11303B0AB01982F813099F08FE00E94AB01982F08
S11303C0813069F081E00E94AB01982F813039F0CF
S11303D086E00E94AB0191E0813009F090E0892F22
S11303E008950F931F93CF93FC01C081CC23B1F0E8
S11303F08C010F5F1F4F41E061E081E00E947800B3
S1130400813069F08C2F0E947801813041F0F8012D
S1130410C1918F01C111EFCF8C2F01C08C2FCF91CF
S11304201F910F91089591E001C0990F8A95EAF701
S11304308BB389278BBB2FE936E881E0215030400C
S11304408040E1F700C00000F3CF21B1287F30E005
S113045090E02817390719F0862F0E941302089597
S113046086B7806886BF86B7846086BF089586B7DE
S1130470806286BF089506B607FEFDCF089586B74D
S1130480806186BF0895CF9313B80E9437020E94FB
S113049030020E943B0260E088E00E94250283E370
S11304A083B986B78F7D86BF0E9430020E943B02CB
S11304B061E080E40E942502C3B10E9430020E94E0
S11304C03B0262E088E50E9425020E943F028C2FD5
S11304D0CF910895CF93DF9300D0CDB7DEB70E94BC
S11304E049000E94BF0182E080B91A82198282E623
S11304F00E9443028983CE0101960E94F101FFCF3D
S1070500F894FFCF99
S11305040101003A003B00390001010031003200CE
S10F051430000101003700380036000000
S9030000FC
