:100000000C942A000C9447000C9447000C94470071
:100010000C9447000C9447000C9447000C94470044
:100020000C9447000C9447000C9447000C94470034
:100030000C9447000C9447000C9447000C94470024
:100040000C9447000C9447000C9447000C94470014
:100050000C94470011241FBECFE5D8E0DEBFCDBF12
:1000600010E0A0E6B0E0E2E4F1E002C005900D92FD
:10007000A036B107D9F720E0A0E6B0E001C01D929C
:10008000A036B207E1F70E947C000C949F000C940C
:10009000000021B1287F30E090E02817390759F49B
:1000A0002BB381E090E002C0880F991F6A95E2F7B8
:1000B000822B8BBB089522B381E090E002C0880FB1
:1000C000991F6A95E2F7822B82BB089586B78068F4
:1000D00086BF86B7846086BF089506B607FC0BC04E
:1000E00091E001C0990F8A95EAF782B3892782BB14
:1000F00006B607FEFACF08951ABA11BA86B7846019
:1001000086BF86B7806486BF86B78F7D86BF86B779
:100110008F7E86BF82E382B980E00E946D0060E03E
:1001200088EA0E94490081E683B90E94660081E066
:100130000E946D0061E080EC0E944900FFCFF894BE
:02014000FFCFEF
:00000001FF
