:100000000C943A000C944F000C944F000C944F0049
:100010000C944F000C944F000C944F000C944F0024
:100020000C944F000C944F000C944F000C944F0014
:100030000C944F000C944F000C944F000C944F0004
:100040000C944F000C944F000C944F000C944F00F4
:100050000C944F00F004F90402050B0514051D056E
:1000600026052F053805400548055005580560054B
:100070006805700511241FBECFE5D8E0DEBFCDBFF7
:1000800011E0A0E6B0E0E6E0FBE002C005900D92D2
:10009000A030B107D9F70E94D6040C9481050C94C6
:1000A0000000EF92FF921F93CF93DF937C01FC013E
:1000B000BC016A567F4F41E050E09081911130C001
:1000C000C481D5812881CA01018002C0880F991F8F
:1000D0000A94E2F7982F9095922398838281811158
:1000E0000DC0C681D7811881CA01018002C0880F66
:1000F000991F0A94E2F7812B88832FC0813009F081
:100100006AC0C681D78198819A01018002C0220FFE
:10011000331F0A94E2F7822F8095892388831DC0BC
:10012000913009F05AC0C481D5811881CA0101807B
:1001300002C0880F991F0A94E2F7812B8883C68139
:10014000D78188819381292F30E0018002C0220F5E
:10015000331F0A94E2F7282B28833A966E177F07FD
:1001600009F0ABCFF701EA56FF4F808181111CC027
:1001700033960190F081E02D1082F701E956FF4F90
:100180008081811108C0E701C556DF4FE881F98100
:100190008FEF80831EC0813011F5E701C556DF4F18
:1001A000E881F981108215C08130D9F4F701E75652
:1001B000FF4F0190F081E02D8FEF8083F701E5562E
:1001C000FF4F0190F081E02DE701C856DF4F888195
:1001D000808380E007C081E005C081E003C081E04A
:1001E00001C081E0DF91CF911F91FF90EF900895C2
:1001F000883008F086C0613039F138F0623009F497
:1002000042C0633009F45EC07EC0442371F04BB33A
:1002100021E030E0B90102C0660F771F8A95E2F74E
:10022000CB01842B8BBB80E008954BB321E030E001
:10023000B90102C0660F771F8A95E2F7CB0180955E
:1002400084238BBB80E00895442371F048B321E000
:1002500030E0B90102C0660F771F8A95E2F7CB0143
:10026000842B88BB80E0089548B321E030E0B901D9
:1002700002C0660F771F8A95E2F7CB018095842331
:1002800088BB80E00895442371F045B321E030E05D
:10029000B90102C0660F771F8A95E2F7CB01842B64
:1002A00085BB80E0089545B321E030E0B90102C08C
:1002B000660F771F8A95E2F7CB018095842385BB73
:1002C00080E00895442371F042B321E030E0B901A9
:1002D00002C0660F771F8A95E2F7CB01842B82BBA1
:1002E00080E0089542B321E030E0B90102C0660F1A
:1002F000771F8A95E2F7CB018095842382BB80E04B
:10030000089581E0089581E00895813059F028F042
:10031000823069F0833081F014C089B3FB0180839F
:1003200080E0089586B3FB01808380E0089583B365
:10033000FB01808380E0089580B3FB01808380E02F
:10034000089581E00895813049F028F0823049F025
:10035000833051F00CC06BBB80E0089568BB80E037
:10036000089565BB80E0089562BB80E0089581E058
:100370000895FF920F931F93CF93DF931F92CDB7F2
:10038000DEB7182F6FEF0E94A301813009F47AC104
:1003900040E0612F80E00E94F800813009F474C1D0
:1003A000BE016F5F7F4F812F0E948501813009F46C
:1003B0006DC18981807F803B31F118F4803791F1E4
:1003C00040C0803D89F0803EE1F5BE016F5F7F4F08
:1003D000812F0E948501813009F45AC18981807F73
:1003E000803E99F307E379C1BE016F5F7F4F812F94
:1003F0000E948501813009F44DC18981807F803D53
:1004000099F308E36AC1BE016F5F7F4F812F0E949D
:100410008501813009F440C18981807F803B99F357
:1004200009E35BC1BE016F5F7F4F812F0E94850191
:10043000813009F433C18981807F803799F30DE2DF
:100440004CC141E0612F80E00E94F800813009F446
:1004500027C140E0612F81E00E94F800813009F45B
:1004600021C1BE016F5F7F4F812F0E948501082F40
:1004700081111AC18981807F803B31F118F4803766
:1004800091F140C0803D89F0803EE1F5BE016F5F93
:100490007F4F812F0E948501813009F41EC189811F
:1004A000807F803E99F304E318C1BE016F5F7F4FE8
:1004B000812F0E948501813009F40FC18981807FDD
:1004C000803D99F305E309C1BE016F5F7F4F812F26
:1004D0000E948501813009F400C18981807F803BC1
:1004E00099F306E3FAC0BE016F5F7F4F812F0E9430
:1004F0008501813009F4F1C08981807F803799F3CB
:1005000008E7EBC041E0612F81E00E94F8008130F4
:1005100009F4E3C040E0612F82E00E94F8008130DE
:1005200009F4DBC0BE016F5F7F4F812F0E94850100
:10053000F82E8111D2C08981807F803B31F118F47F
:10054000803791F140C0803D89F0803EE1F5BE01E9
:100550006F5F7F4F812F0E948501813009F4A6C013
:100560008981807F803E99F301E3B7C0BE016F5F50
:100570007F4F812F0E948501813009F499C08981C4
:10058000807F803D99F302E3A8C0BE016F5F7F4F7B
:10059000812F0E948501813009F48CC08981807F80
:1005A000803B99F303E399C0BE016F5F7F4F812FBA
:1005B0000E948501813009F47FC08981807F803766
:1005C00099F30DE28AC041E0612F82E00E94F800B9
:1005D000813009F473C040E0612F83E00E94F8008D
:1005E000813009F46DC0BE016F5F7F4F812F0E9483
:1005F0008501813009F466C08981807F803B31F1BB
:1006000018F4803789F160C0803D91F0803E09F098
:100610005BC0BE016F5F7F4F812F0E9485018130DB
:1006200009F454C08981807F803E99F303E455C06A
:10063000BE016F5F7F4F812F0E948501811148C0ED
:100640008981807F803DA1F300E347C0BE016F5FD9
:100650007F4F812F0E94850181113CC08981807F5D
:10066000803BA1F30DE339C0BE016F5F7F4F812F47
:100670000E948501813081F18981807F8037A1F3DB
:100680000BE22BC000E029C000E027C000E025C03D
:1006900000E023C000E021C000E01FC000E01DC05A
:1006A00000E01BC000E019C000E017C00F2D15C00E
:1006B0000F2D13C00F2D11C00F2D0FC00F2D0DC00A
:1006C0000F2D0BC00F2D09C00F2D07C00F2D05C01A
:1006D0000F2D03C00F2D01C00F2D802F0F90DF9124
:1006E000CF911F910F91FF900895BF92CF92DF920B
:1006F000EF92FF920F931F93CF93DF93C12C0F2E96
:10070000FDECEF2EF02DDD24DA9441C180E00E9453
:10071000B901833409F047C0CD2D80E00E94B901B2
:10072000D0EDD80FFD2ECC2334F480E00E94B90127
:10073000C0EDC80FD2F3FF2084F3CC0FCC2ECC0C2D
:10074000CC0CCC0DCC2ECD0ECD2D80E00E94B9016D
:10075000D0EDD80FFD2ECC2334F480E00E94B901F7
:10076000C0EDC80FD2F3FF2084F3CC0FFC2EFF0C9A
:10077000FF0CCF0DFC2EFD0ECD2D80E00E94B901A7
:10078000D0EDD80FBD2ECC2334F480E00E94B90107
:10079000C0EDC80FD2F3BB2084F3CC0F8C2F880F91
:1007A000880FC80FDC0F41E063E085E00E94F8008D
:1007B000813009F4F1C040E063E080E00E94F8007D
:1007C000813009F4E9C0DE9D812D112462E0869517
:1007D000869586950E94E304813009F4DDC089E89E
:1007E00092E00197F1F700C0000041E063E080E093
:1007F0000E94F800813009F4CFC040E063E081E05E
:100800000E94F800813009F4C7C0DE9D912D1124AB
:10081000969596959695990F892F880F880F980F22
:1008200062E08D2F891B0E94E304813009F4B4C07B
:1008300089E892E00197F1F700C0000041E063E031
:1008400081E00E94F800813009F4A6C040E063E036
:1008500082E00E94F800813009F49EC0FE9C812D48
:10086000112462E08695869586950E94E304813086
:1008700009F492C089E892E00197F1F700C0000006
:1008800041E063E082E00E94F800813009F484C016
:1008900040E063E083E00E94F800813009F47CC00E
:1008A000FE9C812D1124869586958695880F982F1C
:1008B000990F990F890F62E09F2D981B892F0E9435
:1008C000E304813009F468C089E892E00197F1F708
:1008D00000C0000041E063E083E00E94F800C82F00
:1008E000811157C040E063E084E00E94F80081304D
:1008F00009F452C0CE9C812D112462E08695869524
:1009000086950E94E304813009F446C089E892E0AC
:100910000197F1F700C0000041E063E084E00E942D
:10092000F8008130C9F140E063E085E00E94F80002
:10093000813091F1CE9C812D1124869586958695E6
:10094000880F982F990F990F890F62E09C2D981BA3
:10095000892F0E94E3048130F9F089E892E0019741
:10096000F1F700C000000150110909F0CFCEDF5FA0
:10097000DC3318F40AE310E0C9CEF3949BE39F152F
:1009800010F0D0E0F7CFC3948CE08C1520F0F12C60
:10099000F8CF81E001C08C2FDF91CF911F910F9193
:1009A000FF90EF90DF90CF90BF90089580E690E0A9
:1009B0000E945100813021F00E9475038130E1F7DF
:1009C00081E090E00895962F482F50E04031510586
:1009D00008F08EC0892FFA01E65DFF4F0C947B056D
:1009E0006FE30E94A30191E0813009F482C090E09E
:1009F00080C060E30E94A30191E0813009F479C0D6
:100A000090E077C06BE50E94A30191E0813009F48A
:100A100070C090E06EC06FE40E94A30191E081304D
:100A200009F467C090E065C066E60E94A30191E00A
:100A3000813009F45EC090E05CC06DE60E94A301C5
:100A400091E0813009F455C090E053C06DE70E94F9
:100A5000A30191E0813009F44CC090E04AC067E006
:100A60000E94A30191E0813009F443C090E041C0AD
:100A70006FE70E94A30191E08130D9F190E039C085
:100A80006FE60E94A30191E0813099F190E031C0BE
:100A900067E70E94A30191E0813059F190E029C0FD
:100AA0006CE70E94A30191E0813019F190E021C030
:100AB00069E30E94A30191E08130D9F090E019C070
:100AC0006EE50E94A30191E0813099F090E011C0A1
:100AD00069E70E94A30191E0813059F090E009C0DC
:100AE00061E70E94A30191E0813019F090E001C01C
:100AF00091E0892F0895EE0FFF1F0590F491E02DEE
:060B00000994F894FFCFF8
:100B06000100000131003200300001010001310016
:100B160032003000010200013100320030000103D2
:100B260000013100320030000104000131003200C2
:100B360030000105000131003200300000040001E0
:100B46003A003B003900000500013A003B0039003D
:100B5600000600013A003B003900000700013A0098
:100B66003B003900010000013A003B003900010159
:100B760000013A003B003900010200013A003B0047
:100B86003900010300013A003B0039000000000172
:100B9600370038003600010000340035003300000D
:00000001FF
