S01F00004932435F4D756C74694D61737465725F4D6173746572312E7372656375
S11300000C942A000C943F000C943F000C943F0085
S11300100C943F000C943F000C943F000C943F0060
S11300200C943F000C943F000C943F000C943F0050
S11300300C943F000C943F000C943F000C943F0040
S11300400C943F000C943F000C943F000C943F0030
S11300500C943F0011241FBECFE5D8E0DEBFCDBF16
S113006010E0A0E6B0E0E2E8F1E002C005900D92F5
S1130070AC37B107D9F70E9470000C94BF000C9400
S11300800000CF93DF93E0E6F0E02BE730E09FEF52
S11300908081811110C0C381D48118828181811132
S11300A004C0A581B6819C930FC0813099F4A581C9
S11300B0B6811C9209C0813079F4C381D4819883BC
S11300C0C581D681828188833996E217F30701F7C7
S11300D080E003C081E001C081E0DF91CF91089509
S11300E00E94410086EA8A95F1F700C082E080B957
S11300F086B7846086BF86B7806286BF86B780680D
S113010086BF06B607FEFDCF81B1887F883011F423
S1130110D89A01C0C09A82E383B986B78F7D86BF1F
S113012086B7806886BF86B7846086BF06B607FE3A
S1130130FDCF81B1887F883111F4D99A07C0919A93
S113014086B7806186BF86B7806886BF89E083B939
S113015086B7806886BF86B7846086BF06B607FE0A
S1130160FDCF81B1887F803311F4DA9A01C0C29A3D
S113017086B7806186BF86B7806886BFFFCFF89454
S1050180FFCFAB
S11301820101003A003B0039000101003100320054
S10F019230000101003700380036000086
S9030000FC
